0100001013988210831009948230102                                                       4749001FEUR            01                *
0200001         AAA142LATTE                         PZ00010000000008700000087000000 04 1           00000  0000000   210802     *
0200001         BBBB56YOGURT                        PZ00005000000008700000043500000 04 6           00000  0000000   210802     *
0100002013988210831009949230104                                                       0705001FEUR            01                *
0200002         AAA142LATTE                         PZ00010000000008700000087000000 04 1           00000  0000000   210802     *
0200002         BBBB56YOGURT                        PZ00005000000008700000043500000 04 6           00000  0000000   210802     *
0100003013988210831009950230103                                                       6504011FEUR            01                *
0200003         AAA142LATTE                         PZ00010000000008700000087000000 04 1           00000  0000000   210802     *
0200003         BBBB56YOGURT                        PZ00005000000008700000043500000 04 6           00000  0000000   210802     *
